{
  "contractName": "Election",
  "abi": [
    {
      "inputs": [
        {
          "internalType": "uint256",
          "name": "",
          "type": "uint256"
        }
      ],
      "name": "candidates",
      "outputs": [
        {
          "internalType": "uint256",
          "name": "id",
          "type": "uint256"
        },
        {
          "internalType": "string",
          "name": "name",
          "type": "string"
        },
        {
          "internalType": "string",
          "name": "party",
          "type": "string"
        },
        {
          "internalType": "uint256",
          "name": "voteCount",
          "type": "uint256"
        }
      ],
      "stateMutability": "view",
      "type": "function",
      "constant": true
    },
    {
      "inputs": [],
      "name": "candidatesCount",
      "outputs": [
        {
          "internalType": "uint256",
          "name": "",
          "type": "uint256"
        }
      ],
      "stateMutability": "view",
      "type": "function",
      "constant": true
    },
    {
      "inputs": [
        {
          "internalType": "address",
          "name": "",
          "type": "address"
        }
      ],
      "name": "voters",
      "outputs": [
        {
          "internalType": "address",
          "name": "voterAddress",
          "type": "address"
        },
        {
          "internalType": "bool",
          "name": "voted",
          "type": "bool"
        },
        {
          "internalType": "bool",
          "name": "isValue",
          "type": "bool"
        }
      ],
      "stateMutability": "view",
      "type": "function",
      "constant": true
    },
    {
      "inputs": [
        {
          "internalType": "string",
          "name": "str1",
          "type": "string"
        },
        {
          "internalType": "string",
          "name": "str2",
          "type": "string"
        }
      ],
      "name": "compare",
      "outputs": [
        {
          "internalType": "bool",
          "name": "",
          "type": "bool"
        }
      ],
      "stateMutability": "pure",
      "type": "function",
      "constant": true
    },
    {
      "inputs": [
        {
          "internalType": "string",
          "name": "_name",
          "type": "string"
        },
        {
          "internalType": "string",
          "name": "_party",
          "type": "string"
        }
      ],
      "name": "addCandidate",
      "outputs": [],
      "stateMutability": "nonpayable",
      "type": "function"
    },
    {
      "inputs": [],
      "name": "addVoter",
      "outputs": [],
      "stateMutability": "nonpayable",
      "type": "function"
    },
    {
      "inputs": [
        {
          "internalType": "uint256",
          "name": "_candidateId",
          "type": "uint256"
        }
      ],
      "name": "vote",
      "outputs": [],
      "stateMutability": "nonpayable",
      "type": "function"
    }
  ],
  "bytecode": "0x608060405234801561001057600080fd5b50610fc8806100206000396000f3fe608060405234801561001057600080fd5b506004361061007d5760003560e01c80633477ee2e1161005b5780633477ee2e146100d85780633a96fdd71461010b5780635f9bb8e31461013b578063a3ec138d146101455761007d565b80630121b93f1461008257806326541b561461009e5780632d35a8a2146100ba575b600080fd5b61009c60048036038101906100979190610724565b610177565b005b6100b860048036038101906100b39190610897565b6102ea565b005b6100c2610380565b6040516100cf919061091e565b60405180910390f35b6100f260048036038101906100ed9190610724565b610386565b60405161010294939291906109b8565b60405180910390f35b61012560048036038101906101209190610897565b6104c6565b6040516101329190610a26565b60405180910390f35b61014361051f565b005b61015f600480360381019061015a9190610a9f565b610676565b60405161016e93929190610adb565b60405180910390f35b600260003373ffffffffffffffffffffffffffffffffffffffff1673ffffffffffffffffffffffffffffffffffffffff16815260200190815260200160002060000160149054906101000a900460ff1615610207576040517f08c379a00000000000000000000000000000000000000000000000000000000081526004016101fe90610b5e565b60405180910390fd5b6000600160008381526020019081526020016000206000015403610260576040517f08c379a000000000000000000000000000000000000000000000000000000000815260040161025790610bca565b60405180910390fd5b6001600260003373ffffffffffffffffffffffffffffffffffffffff1673ffffffffffffffffffffffffffffffffffffffff16815260200190815260200160002060000160146101000a81548160ff0219169083151502179055506001600082815260200190815260200160002060030160008154809291906102e290610c19565b919050555050565b6000808154809291906102fc90610c19565b919050555060405180608001604052806000548152602001838152602001828152602001600081525060016000805481526020019081526020016000206000820151816000015560208201518160010190816103589190610e6d565b50604082015181600201908161036e9190610e6d565b50606082015181600301559050505050565b60005481565b60016020528060005260406000206000915090508060000154908060010180546103af90610c90565b80601f01602080910402602001604051908101604052809291908181526020018280546103db90610c90565b80156104285780601f106103fd57610100808354040283529160200191610428565b820191906000526020600020905b81548152906001019060200180831161040b57829003601f168201915b50505050509080600201805461043d90610c90565b80601f016020809104026020016040519081016040528092919081815260200182805461046990610c90565b80156104b65780601f1061048b576101008083540402835291602001916104b6565b820191906000526020600020905b81548152906001019060200180831161049957829003601f168201915b5050505050908060030154905084565b6000816040516020016104d99190610f7b565b60405160208183030381529060405280519060200120836040516020016105009190610f7b565b6040516020818303038152906040528051906020012014905092915050565b600260003373ffffffffffffffffffffffffffffffffffffffff1673ffffffffffffffffffffffffffffffffffffffff16815260200190815260200160002060000160159054906101000a900460ff166106745760405180606001604052803373ffffffffffffffffffffffffffffffffffffffff16815260200160001515815260200160011515815250600260003373ffffffffffffffffffffffffffffffffffffffff1673ffffffffffffffffffffffffffffffffffffffff16815260200190815260200160002060008201518160000160006101000a81548173ffffffffffffffffffffffffffffffffffffffff021916908373ffffffffffffffffffffffffffffffffffffffff16021790555060208201518160000160146101000a81548160ff02191690831515021790555060408201518160000160156101000a81548160ff0219169083151502179055509050505b565b60026020528060005260406000206000915090508060000160009054906101000a900473ffffffffffffffffffffffffffffffffffffffff16908060000160149054906101000a900460ff16908060000160159054906101000a900460ff16905083565b6000604051905090565b600080fd5b600080fd5b6000819050919050565b610701816106ee565b811461070c57600080fd5b50565b60008135905061071e816106f8565b92915050565b60006020828403121561073a576107396106e4565b5b60006107488482850161070f565b91505092915050565b600080fd5b600080fd5b6000601f19601f8301169050919050565b7f4e487b7100000000000000000000000000000000000000000000000000000000600052604160045260246000fd5b6107a48261075b565b810181811067ffffffffffffffff821117156107c3576107c261076c565b5b80604052505050565b60006107d66106da565b90506107e2828261079b565b919050565b600067ffffffffffffffff8211156108025761080161076c565b5b61080b8261075b565b9050602081019050919050565b82818337600083830152505050565b600061083a610835846107e7565b6107cc565b90508281526020810184848401111561085657610855610756565b5b610861848285610818565b509392505050565b600082601f83011261087e5761087d610751565b5b813561088e848260208601610827565b91505092915050565b600080604083850312156108ae576108ad6106e4565b5b600083013567ffffffffffffffff8111156108cc576108cb6106e9565b5b6108d885828601610869565b925050602083013567ffffffffffffffff8111156108f9576108f86106e9565b5b61090585828601610869565b9150509250929050565b610918816106ee565b82525050565b6000602082019050610933600083018461090f565b92915050565b600081519050919050565b600082825260208201905092915050565b60005b83811015610973578082015181840152602081019050610958565b60008484015250505050565b600061098a82610939565b6109948185610944565b93506109a4818560208601610955565b6109ad8161075b565b840191505092915050565b60006080820190506109cd600083018761090f565b81810360208301526109df818661097f565b905081810360408301526109f3818561097f565b9050610a02606083018461090f565b95945050505050565b60008115159050919050565b610a2081610a0b565b82525050565b6000602082019050610a3b6000830184610a17565b92915050565b600073ffffffffffffffffffffffffffffffffffffffff82169050919050565b6000610a6c82610a41565b9050919050565b610a7c81610a61565b8114610a8757600080fd5b50565b600081359050610a9981610a73565b92915050565b600060208284031215610ab557610ab46106e4565b5b6000610ac384828501610a8a565b91505092915050565b610ad581610a61565b82525050565b6000606082019050610af06000830186610acc565b610afd6020830185610a17565b610b0a6040830184610a17565b949350505050565b7f596f75206861766520616c726561647920766f74656400000000000000000000600082015250565b6000610b48601683610944565b9150610b5382610b12565b602082019050919050565b60006020820190508181036000830152610b7781610b3b565b9050919050565b7f43616e64696461746520646f6573206e6f742065786973740000000000000000600082015250565b6000610bb4601883610944565b9150610bbf82610b7e565b602082019050919050565b60006020820190508181036000830152610be381610ba7565b9050919050565b7f4e487b7100000000000000000000000000000000000000000000000000000000600052601160045260246000fd5b6000610c24826106ee565b91507fffffffffffffffffffffffffffffffffffffffffffffffffffffffffffffffff8203610c5657610c55610bea565b5b600182019050919050565b7f4e487b7100000000000000000000000000000000000000000000000000000000600052602260045260246000fd5b60006002820490506001821680610ca857607f821691505b602082108103610cbb57610cba610c61565b5b50919050565b60008190508160005260206000209050919050565b60006020601f8301049050919050565b600082821b905092915050565b600060088302610d237fffffffffffffffffffffffffffffffffffffffffffffffffffffffffffffffff82610ce6565b610d2d8683610ce6565b95508019841693508086168417925050509392505050565b6000819050919050565b6000610d6a610d65610d60846106ee565b610d45565b6106ee565b9050919050565b6000819050919050565b610d8483610d4f565b610d98610d9082610d71565b848454610cf3565b825550505050565b600090565b610dad610da0565b610db8818484610d7b565b505050565b5b81811015610ddc57610dd1600082610da5565b600181019050610dbe565b5050565b601f821115610e2157610df281610cc1565b610dfb84610cd6565b81016020851015610e0a578190505b610e1e610e1685610cd6565b830182610dbd565b50505b505050565b600082821c905092915050565b6000610e4460001984600802610e26565b1980831691505092915050565b6000610e5d8383610e33565b9150826002028217905092915050565b610e7682610939565b67ffffffffffffffff811115610e8f57610e8e61076c565b5b610e998254610c90565b610ea4828285610de0565b600060209050601f831160018114610ed75760008415610ec5578287015190505b610ecf8582610e51565b865550610f37565b601f198416610ee586610cc1565b60005b82811015610f0d57848901518255600182019150602085019450602081019050610ee8565b86831015610f2a5784890151610f26601f891682610e33565b8355505b6001600288020188555050505b505050505050565b600081905092915050565b6000610f5582610939565b610f5f8185610f3f565b9350610f6f818560208601610955565b80840191505092915050565b6000610f878284610f4a565b91508190509291505056fea2646970667358221220b19df05d511f0b525251b42c6582d71943117a0d1f3e772f9cf824021e94adef64736f6c63430008110033",
  "immutableReferences": {},
  "source": "// SPDX-License-Identifier: MIT\npragma solidity ^0.8.0;\n\ncontract Election {\n    uint public candidatesCount;\n\n    struct Candidate {\n        uint id;\n        string name;\n        string party;\n        uint voteCount;\n    }\n    \n    struct Voter{\n        address voterAddress;\n        bool voted;\n        bool isValue;\n    }\n\n    mapping(uint=> Candidate) public candidates;\n    mapping(address => Voter) public voters;\n    \n    function compare(string memory str1, string memory str2) public pure returns (bool) {\n        return keccak256(abi.encodePacked(str1)) == keccak256(abi.encodePacked(str2));\n    }\n    \n    \n    function addCandidate(string memory _name, string memory _party) public{\n        candidatesCount++;\n        candidates[candidatesCount] = Candidate(candidatesCount, _name, _party, 0);\n    }\n\n\n    function addVoter() public {\n        if(!voters[msg.sender].isValue){\n            voters[msg.sender] = Voter(msg.sender,  false, true);\n        }\n    }\n    \n    function vote(uint _candidateId) public {\n        require(!voters[msg.sender].voted, \"You have already voted\");\n        require(candidates[_candidateId].id != 0, \"Candidate does not exist\");\n        voters[msg.sender].voted= true;\n        candidates[_candidateId].voteCount++;\n    }\n}\n",
  "sourcePath": "/Users/s0m/Developer/web/pro/contracts/Election.sol",
  "compiler": {
    "name": "solc",
    "version": "0.8.17+commit.8df45f5f.Emscripten.clang"
  },
  "schemaVersion": "3.4.11",
  "updatedAt": "2023-06-16T12:06:03.178Z",
  "networkType": "ethereum",
  "devdoc": {
    "kind": "dev",
    "methods": {},
    "version": 1
  },
  "userdoc": {
    "kind": "user",
    "methods": {},
    "version": 1
  }
}