{
  "contractName": "Election",
  "abi": [
    {
      "inputs": [
        {
          "internalType": "uint256",
          "name": "",
          "type": "uint256"
        }
      ],
      "name": "candidates",
      "outputs": [
        {
          "internalType": "uint256",
          "name": "id",
          "type": "uint256"
        },
        {
          "internalType": "string",
          "name": "name",
          "type": "string"
        },
        {
          "internalType": "string",
          "name": "party",
          "type": "string"
        },
        {
          "internalType": "uint256",
          "name": "voteCount",
          "type": "uint256"
        }
      ],
      "stateMutability": "view",
      "type": "function",
      "constant": true
    },
    {
      "inputs": [],
      "name": "candidatesCount",
      "outputs": [
        {
          "internalType": "uint256",
          "name": "",
          "type": "uint256"
        }
      ],
      "stateMutability": "view",
      "type": "function",
      "constant": true
    },
    {
      "inputs": [
        {
          "internalType": "address",
          "name": "",
          "type": "address"
        }
      ],
      "name": "voted",
      "outputs": [
        {
          "internalType": "bool",
          "name": "",
          "type": "bool"
        }
      ],
      "stateMutability": "view",
      "type": "function",
      "constant": true
    },
    {
      "inputs": [],
      "name": "votersCount",
      "outputs": [
        {
          "internalType": "uint256",
          "name": "",
          "type": "uint256"
        }
      ],
      "stateMutability": "view",
      "type": "function",
      "constant": true
    },
    {
      "inputs": [
        {
          "internalType": "string",
          "name": "_name",
          "type": "string"
        },
        {
          "internalType": "string",
          "name": "_party",
          "type": "string"
        }
      ],
      "name": "addCandidate",
      "outputs": [],
      "stateMutability": "nonpayable",
      "type": "function"
    },
    {
      "inputs": [],
      "name": "addVoter",
      "outputs": [],
      "stateMutability": "nonpayable",
      "type": "function"
    },
    {
      "inputs": [
        {
          "internalType": "uint256",
          "name": "_candidateId",
          "type": "uint256"
        }
      ],
      "name": "vote",
      "outputs": [],
      "stateMutability": "nonpayable",
      "type": "function"
    }
  ],
  "bytecode": "0x608060405234801561001057600080fd5b50610d81806100206000396000f3fe608060405234801561001057600080fd5b506004361061007d5760003560e01c80633477ee2e1161005b5780633477ee2e146100d85780635f9bb8e31461010b57806398c0793814610115578063aec2ccae146101335761007d565b80630121b93f1461008257806326541b561461009e5780632d35a8a2146100ba575b600080fd5b61009c60048036038101906100979190610576565b610163565b005b6100b860048036038101906100b391906106e9565b6102d0565b005b6100c2610366565b6040516100cf9190610770565b60405180910390f35b6100f260048036038101906100ed9190610576565b61036c565b604051610102949392919061080a565b60405180910390f35b6101136104ac565b005b61011d610506565b60405161012a9190610770565b60405180910390f35b61014d600480360381019061014891906108bb565b61050c565b60405161015a9190610903565b60405180910390f35b600360003373ffffffffffffffffffffffffffffffffffffffff1673ffffffffffffffffffffffffffffffffffffffff16815260200190815260200160002060009054906101000a900460ff16156101f0576040517f08c379a00000000000000000000000000000000000000000000000000000000081526004016101e79061096a565b60405180910390fd5b6000600260008381526020019081526020016000206000015403610249576040517f08c379a0000000000000000000000000000000000000000000000000000000008152600401610240906109d6565b60405180910390fd5b6001600360003373ffffffffffffffffffffffffffffffffffffffff1673ffffffffffffffffffffffffffffffffffffffff16815260200190815260200160002060006101000a81548160ff0219169083151502179055506002600082815260200190815260200160002060030160008154809291906102c890610a25565b919050555050565b6000808154809291906102e290610a25565b9190505550604051806080016040528060005481526020018381526020018281526020016000815250600260008054815260200190815260200160002060008201518160000155602082015181600101908161033e9190610c79565b5060408201518160020190816103549190610c79565b50606082015181600301559050505050565b60005481565b600260205280600052604060002060009150905080600001549080600101805461039590610a9c565b80601f01602080910402602001604051908101604052809291908181526020018280546103c190610a9c565b801561040e5780601f106103e35761010080835404028352916020019161040e565b820191906000526020600020905b8154815290600101906020018083116103f157829003601f168201915b50505050509080600201805461042390610a9c565b80601f016020809104026020016040519081016040528092919081815260200182805461044f90610a9c565b801561049c5780601f106104715761010080835404028352916020019161049c565b820191906000526020600020905b81548152906001019060200180831161047f57829003601f168201915b5050505050908060030154905084565b6000600360003373ffffffffffffffffffffffffffffffffffffffff1673ffffffffffffffffffffffffffffffffffffffff16815260200190815260200160002060006101000a81548160ff021916908315150217905550565b60015481565b60036020528060005260406000206000915054906101000a900460ff1681565b6000604051905090565b600080fd5b600080fd5b6000819050919050565b61055381610540565b811461055e57600080fd5b50565b6000813590506105708161054a565b92915050565b60006020828403121561058c5761058b610536565b5b600061059a84828501610561565b91505092915050565b600080fd5b600080fd5b6000601f19601f8301169050919050565b7f4e487b7100000000000000000000000000000000000000000000000000000000600052604160045260246000fd5b6105f6826105ad565b810181811067ffffffffffffffff82111715610615576106146105be565b5b80604052505050565b600061062861052c565b905061063482826105ed565b919050565b600067ffffffffffffffff821115610654576106536105be565b5b61065d826105ad565b9050602081019050919050565b82818337600083830152505050565b600061068c61068784610639565b61061e565b9050828152602081018484840111156106a8576106a76105a8565b5b6106b384828561066a565b509392505050565b600082601f8301126106d0576106cf6105a3565b5b81356106e0848260208601610679565b91505092915050565b60008060408385031215610700576106ff610536565b5b600083013567ffffffffffffffff81111561071e5761071d61053b565b5b61072a858286016106bb565b925050602083013567ffffffffffffffff81111561074b5761074a61053b565b5b610757858286016106bb565b9150509250929050565b61076a81610540565b82525050565b60006020820190506107856000830184610761565b92915050565b600081519050919050565b600082825260208201905092915050565b60005b838110156107c55780820151818401526020810190506107aa565b60008484015250505050565b60006107dc8261078b565b6107e68185610796565b93506107f68185602086016107a7565b6107ff816105ad565b840191505092915050565b600060808201905061081f6000830187610761565b818103602083015261083181866107d1565b9050818103604083015261084581856107d1565b90506108546060830184610761565b95945050505050565b600073ffffffffffffffffffffffffffffffffffffffff82169050919050565b60006108888261085d565b9050919050565b6108988161087d565b81146108a357600080fd5b50565b6000813590506108b58161088f565b92915050565b6000602082840312156108d1576108d0610536565b5b60006108df848285016108a6565b91505092915050565b60008115159050919050565b6108fd816108e8565b82525050565b600060208201905061091860008301846108f4565b92915050565b7f596f75206861766520616c726561647920766f74656400000000000000000000600082015250565b6000610954601683610796565b915061095f8261091e565b602082019050919050565b6000602082019050818103600083015261098381610947565b9050919050565b7f43616e64696461746520646f6573206e6f742065786973740000000000000000600082015250565b60006109c0601883610796565b91506109cb8261098a565b602082019050919050565b600060208201905081810360008301526109ef816109b3565b9050919050565b7f4e487b7100000000000000000000000000000000000000000000000000000000600052601160045260246000fd5b6000610a3082610540565b91507fffffffffffffffffffffffffffffffffffffffffffffffffffffffffffffffff8203610a6257610a616109f6565b5b600182019050919050565b7f4e487b7100000000000000000000000000000000000000000000000000000000600052602260045260246000fd5b60006002820490506001821680610ab457607f821691505b602082108103610ac757610ac6610a6d565b5b50919050565b60008190508160005260206000209050919050565b60006020601f8301049050919050565b600082821b905092915050565b600060088302610b2f7fffffffffffffffffffffffffffffffffffffffffffffffffffffffffffffffff82610af2565b610b398683610af2565b95508019841693508086168417925050509392505050565b6000819050919050565b6000610b76610b71610b6c84610540565b610b51565b610540565b9050919050565b6000819050919050565b610b9083610b5b565b610ba4610b9c82610b7d565b848454610aff565b825550505050565b600090565b610bb9610bac565b610bc4818484610b87565b505050565b5b81811015610be857610bdd600082610bb1565b600181019050610bca565b5050565b601f821115610c2d57610bfe81610acd565b610c0784610ae2565b81016020851015610c16578190505b610c2a610c2285610ae2565b830182610bc9565b50505b505050565b600082821c905092915050565b6000610c5060001984600802610c32565b1980831691505092915050565b6000610c698383610c3f565b9150826002028217905092915050565b610c828261078b565b67ffffffffffffffff811115610c9b57610c9a6105be565b5b610ca58254610a9c565b610cb0828285610bec565b600060209050601f831160018114610ce35760008415610cd1578287015190505b610cdb8582610c5d565b865550610d43565b601f198416610cf186610acd565b60005b82811015610d1957848901518255600182019150602085019450602081019050610cf4565b86831015610d365784890151610d32601f891682610c3f565b8355505b6001600288020188555050505b50505050505056fea26469706673582212209dcfa722d84b88b5ebeabb1c99761f7419d71bca4db53f04c200abaa9326cb8764736f6c63430008110033",
  "immutableReferences": {},
  "source": "// SPDX-License-Identifier: MIT\npragma solidity ^0.8.0;\n\ncontract Election {\n    uint public candidatesCount;\n    uint public votersCount;\n\n    struct Candidate {\n        uint id;\n        string name;\n        string party;\n        uint voteCount;\n    }\n\n    mapping(uint=> Candidate) public candidates;\n    mapping(address => bool) public voted;\n    \n    \n    function addCandidate(string memory _name, string memory _party) public{\n        candidatesCount++;\n        candidates[candidatesCount] = Candidate(candidatesCount, _name, _party, 0);\n    }\n    \n\n    function addVoter() public {\n        voted[msg.sender] = false;\n    }\n    \n    function vote(uint _candidateId) public {\n        require(!voted[msg.sender], \"You have already voted\");\n        require(candidates[_candidateId].id != 0, \"Candidate does not exist\");\n        voted[msg.sender]= true;\n        candidates[_candidateId].voteCount++;\n    }\n}\n",
  "sourcePath": "/Users/s0m/Developer/web/pro/contracts/Election.sol",
  "compiler": {
    "name": "solc",
    "version": "0.8.17+commit.8df45f5f.Emscripten.clang"
  },
  "schemaVersion": "3.4.11",
  "updatedAt": "2023-05-29T04:43:18.772Z",
  "networkType": "ethereum",
  "devdoc": {
    "kind": "dev",
    "methods": {},
    "version": 1
  },
  "userdoc": {
    "kind": "user",
    "methods": {},
    "version": 1
  }
}